{
  "contractName": "SudalFarm",
  "abi": [
    {
      "inputs": [],
      "stateMutability": "nonpayable",
      "type": "constructor"
    },
    {
      "anonymous": false,
      "inputs": [
        {
          "indexed": true,
          "internalType": "address",
          "name": "owner",
          "type": "address"
        },
        {
          "indexed": true,
          "internalType": "address",
          "name": "approved",
          "type": "address"
        },
        {
          "indexed": true,
          "internalType": "uint256",
          "name": "tokenId",
          "type": "uint256"
        }
      ],
      "name": "Approval",
      "type": "event"
    },
    {
      "anonymous": false,
      "inputs": [
        {
          "indexed": true,
          "internalType": "address",
          "name": "owner",
          "type": "address"
        },
        {
          "indexed": true,
          "internalType": "address",
          "name": "operator",
          "type": "address"
        },
        {
          "indexed": false,
          "internalType": "bool",
          "name": "approved",
          "type": "bool"
        }
      ],
      "name": "ApprovalForAll",
      "type": "event"
    },
    {
      "anonymous": false,
      "inputs": [
        {
          "indexed": true,
          "internalType": "address",
          "name": "owner",
          "type": "address"
        },
        {
          "indexed": false,
          "internalType": "uint256",
          "name": "id",
          "type": "uint256"
        },
        {
          "indexed": false,
          "internalType": "uint256",
          "name": "dna",
          "type": "uint256"
        }
      ],
      "name": "NewSudal",
      "type": "event"
    },
    {
      "anonymous": false,
      "inputs": [
        {
          "indexed": true,
          "internalType": "address",
          "name": "previousOwner",
          "type": "address"
        },
        {
          "indexed": true,
          "internalType": "address",
          "name": "newOwner",
          "type": "address"
        }
      ],
      "name": "OwnershipTransferred",
      "type": "event"
    },
    {
      "anonymous": false,
      "inputs": [
        {
          "indexed": true,
          "internalType": "address",
          "name": "from",
          "type": "address"
        },
        {
          "indexed": true,
          "internalType": "address",
          "name": "to",
          "type": "address"
        },
        {
          "indexed": true,
          "internalType": "uint256",
          "name": "tokenId",
          "type": "uint256"
        }
      ],
      "name": "Transfer",
      "type": "event"
    },
    {
      "inputs": [
        {
          "internalType": "address",
          "name": "to",
          "type": "address"
        },
        {
          "internalType": "uint256",
          "name": "tokenId",
          "type": "uint256"
        }
      ],
      "name": "approve",
      "outputs": [],
      "stateMutability": "nonpayable",
      "type": "function"
    },
    {
      "inputs": [
        {
          "internalType": "address",
          "name": "owner",
          "type": "address"
        }
      ],
      "name": "balanceOf",
      "outputs": [
        {
          "internalType": "uint256",
          "name": "",
          "type": "uint256"
        }
      ],
      "stateMutability": "view",
      "type": "function",
      "constant": true
    },
    {
      "inputs": [
        {
          "internalType": "uint256",
          "name": "tokenId",
          "type": "uint256"
        }
      ],
      "name": "getApproved",
      "outputs": [
        {
          "internalType": "address",
          "name": "",
          "type": "address"
        }
      ],
      "stateMutability": "view",
      "type": "function",
      "constant": true
    },
    {
      "inputs": [
        {
          "internalType": "address",
          "name": "owner",
          "type": "address"
        },
        {
          "internalType": "address",
          "name": "operator",
          "type": "address"
        }
      ],
      "name": "isApprovedForAll",
      "outputs": [
        {
          "internalType": "bool",
          "name": "",
          "type": "bool"
        }
      ],
      "stateMutability": "view",
      "type": "function",
      "constant": true
    },
    {
      "inputs": [],
      "name": "name",
      "outputs": [
        {
          "internalType": "string",
          "name": "",
          "type": "string"
        }
      ],
      "stateMutability": "view",
      "type": "function",
      "constant": true
    },
    {
      "inputs": [],
      "name": "owner",
      "outputs": [
        {
          "internalType": "address",
          "name": "",
          "type": "address"
        }
      ],
      "stateMutability": "view",
      "type": "function",
      "constant": true
    },
    {
      "inputs": [
        {
          "internalType": "uint256",
          "name": "tokenId",
          "type": "uint256"
        }
      ],
      "name": "ownerOf",
      "outputs": [
        {
          "internalType": "address",
          "name": "",
          "type": "address"
        }
      ],
      "stateMutability": "view",
      "type": "function",
      "constant": true
    },
    {
      "inputs": [],
      "name": "renounceOwnership",
      "outputs": [],
      "stateMutability": "nonpayable",
      "type": "function"
    },
    {
      "inputs": [
        {
          "internalType": "address",
          "name": "from",
          "type": "address"
        },
        {
          "internalType": "address",
          "name": "to",
          "type": "address"
        },
        {
          "internalType": "uint256",
          "name": "tokenId",
          "type": "uint256"
        }
      ],
      "name": "safeTransferFrom",
      "outputs": [],
      "stateMutability": "nonpayable",
      "type": "function"
    },
    {
      "inputs": [
        {
          "internalType": "address",
          "name": "from",
          "type": "address"
        },
        {
          "internalType": "address",
          "name": "to",
          "type": "address"
        },
        {
          "internalType": "uint256",
          "name": "tokenId",
          "type": "uint256"
        },
        {
          "internalType": "bytes",
          "name": "data",
          "type": "bytes"
        }
      ],
      "name": "safeTransferFrom",
      "outputs": [],
      "stateMutability": "nonpayable",
      "type": "function"
    },
    {
      "inputs": [
        {
          "internalType": "address",
          "name": "operator",
          "type": "address"
        },
        {
          "internalType": "bool",
          "name": "approved",
          "type": "bool"
        }
      ],
      "name": "setApprovalForAll",
      "outputs": [],
      "stateMutability": "nonpayable",
      "type": "function"
    },
    {
      "inputs": [
        {
          "internalType": "uint256",
          "name": "",
          "type": "uint256"
        }
      ],
      "name": "sudals",
      "outputs": [
        {
          "internalType": "string",
          "name": "name",
          "type": "string"
        },
        {
          "internalType": "uint256",
          "name": "id",
          "type": "uint256"
        },
        {
          "internalType": "uint256",
          "name": "dna",
          "type": "uint256"
        }
      ],
      "stateMutability": "view",
      "type": "function",
      "constant": true
    },
    {
      "inputs": [
        {
          "internalType": "bytes4",
          "name": "interfaceId",
          "type": "bytes4"
        }
      ],
      "name": "supportsInterface",
      "outputs": [
        {
          "internalType": "bool",
          "name": "",
          "type": "bool"
        }
      ],
      "stateMutability": "view",
      "type": "function",
      "constant": true
    },
    {
      "inputs": [],
      "name": "symbol",
      "outputs": [
        {
          "internalType": "string",
          "name": "",
          "type": "string"
        }
      ],
      "stateMutability": "view",
      "type": "function",
      "constant": true
    },
    {
      "inputs": [
        {
          "internalType": "uint256",
          "name": "tokenId",
          "type": "uint256"
        }
      ],
      "name": "tokenURI",
      "outputs": [
        {
          "internalType": "string",
          "name": "",
          "type": "string"
        }
      ],
      "stateMutability": "view",
      "type": "function",
      "constant": true
    },
    {
      "inputs": [
        {
          "internalType": "address",
          "name": "from",
          "type": "address"
        },
        {
          "internalType": "address",
          "name": "to",
          "type": "address"
        },
        {
          "internalType": "uint256",
          "name": "tokenId",
          "type": "uint256"
        }
      ],
      "name": "transferFrom",
      "outputs": [],
      "stateMutability": "nonpayable",
      "type": "function"
    },
    {
      "inputs": [
        {
          "internalType": "address",
          "name": "newOwner",
          "type": "address"
        }
      ],
      "name": "transferOwnership",
      "outputs": [],
      "stateMutability": "nonpayable",
      "type": "function"
    },
    {
      "inputs": [],
      "name": "withdraw",
      "outputs": [],
      "stateMutability": "payable",
      "type": "function",
      "payable": true
    },
    {
      "inputs": [
        {
          "internalType": "string",
          "name": "_name",
          "type": "string"
        },
        {
          "internalType": "uint256",
          "name": "_dna",
          "type": "uint256"
        }
      ],
      "name": "_createSudal",
      "outputs": [
        {
          "internalType": "uint256",
          "name": "",
          "type": "uint256"
        }
      ],
      "stateMutability": "nonpayable",
      "type": "function"
    },
    {
      "inputs": [],
      "name": "getSudals",
      "outputs": [
        {
          "components": [
            {
              "internalType": "string",
              "name": "name",
              "type": "string"
            },
            {
              "internalType": "uint256",
              "name": "id",
              "type": "uint256"
            },
            {
              "internalType": "uint256",
              "name": "dna",
              "type": "uint256"
            }
          ],
          "internalType": "struct SudalFarm.Sudal[]",
          "name": "",
          "type": "tuple[]"
        }
      ],
      "stateMutability": "view",
      "type": "function",
      "constant": true
    },
    {
      "inputs": [
        {
          "internalType": "address",
          "name": "_owner",
          "type": "address"
        }
      ],
      "name": "_getSudalsByOwner",
      "outputs": [
        {
          "components": [
            {
              "internalType": "string",
              "name": "name",
              "type": "string"
            },
            {
              "internalType": "uint256",
              "name": "id",
              "type": "uint256"
            },
            {
              "internalType": "uint256",
              "name": "dna",
              "type": "uint256"
            }
          ],
          "internalType": "struct SudalFarm.Sudal[]",
          "name": "",
          "type": "tuple[]"
        }
      ],
      "stateMutability": "view",
      "type": "function",
      "constant": true
    }
  ],
  "bytecode": "0x60806040523480156200001157600080fd5b506040518060400160405280600881526020017f537564616c4e46540000000000000000000000000000000000000000000000008152506040518060400160405280600381526020017f4e4654000000000000000000000000000000000000000000000000000000000081525081600090816200008f919062000412565b508060019081620000a1919062000412565b505050620000c4620000b8620000ca60201b60201c565b620000d260201b60201c565b620004f9565b600033905090565b6000600760009054906101000a900473ffffffffffffffffffffffffffffffffffffffff16905081600760006101000a81548173ffffffffffffffffffffffffffffffffffffffff021916908373ffffffffffffffffffffffffffffffffffffffff1602179055508173ffffffffffffffffffffffffffffffffffffffff168173ffffffffffffffffffffffffffffffffffffffff167f8be0079c531659141344cd1fd0a4f28419497f9722a3daafe3b4186f6b6457e060405160405180910390a35050565b600081519050919050565b7f4e487b7100000000000000000000000000000000000000000000000000000000600052604160045260246000fd5b7f4e487b7100000000000000000000000000000000000000000000000000000000600052602260045260246000fd5b600060028204905060018216806200021a57607f821691505b60208210810362000230576200022f620001d2565b5b50919050565b60008190508160005260206000209050919050565b60006020601f8301049050919050565b600082821b905092915050565b6000600883026200029a7fffffffffffffffffffffffffffffffffffffffffffffffffffffffffffffffff826200025b565b620002a686836200025b565b95508019841693508086168417925050509392505050565b6000819050919050565b6000819050919050565b6000620002f3620002ed620002e784620002be565b620002c8565b620002be565b9050919050565b6000819050919050565b6200030f83620002d2565b620003276200031e82620002fa565b84845462000268565b825550505050565b600090565b6200033e6200032f565b6200034b81848462000304565b505050565b5b8181101562000373576200036760008262000334565b60018101905062000351565b5050565b601f821115620003c2576200038c8162000236565b62000397846200024b565b81016020851015620003a7578190505b620003bf620003b6856200024b565b83018262000350565b50505b505050565b600082821c905092915050565b6000620003e760001984600802620003c7565b1980831691505092915050565b6000620004028383620003d4565b9150826002028217905092915050565b6200041d8262000198565b67ffffffffffffffff811115620004395762000438620001a3565b5b62000445825462000201565b6200045282828562000377565b600060209050601f8311600181146200048a576000841562000475578287015190505b620004818582620003f4565b865550620004f1565b601f1984166200049a8662000236565b60005b82811015620004c4578489015182556001820191506020850194506020810190506200049d565b86831015620004e45784890151620004e0601f891682620003d4565b8355505b6001600288020188555050505b505050505050565b61359b80620005096000396000f3fe60806040526004361061012a5760003560e01c8063715018a6116100ab578063c87b56dd1161006f578063c87b56dd146103cf578063e985e9c51461040c578063ea0fbfde14610449578063f2fde38b14610488578063f321c720146104b1578063f4e71c7c146104ee5761012a565b8063715018a6146103105780638da5cb5b1461032757806395d89b4114610352578063a22cb4651461037d578063b88d4fde146103a65761012a565b806330a93e84116100f257806330a93e84146102265780633ccfd60b1461026357806342842e0e1461026d5780636352211e1461029657806370a08231146102d35761012a565b806301ffc9a71461012f57806306fdde031461016c578063081812fc14610197578063095ea7b3146101d457806323b872dd146101fd575b600080fd5b34801561013b57600080fd5b50610156600480360381019061015191906120ba565b610519565b6040516101639190612102565b60405180910390f35b34801561017857600080fd5b506101816105fb565b60405161018e91906121ad565b60405180910390f35b3480156101a357600080fd5b506101be60048036038101906101b99190612205565b61068d565b6040516101cb9190612273565b60405180910390f35b3480156101e057600080fd5b506101fb60048036038101906101f691906122ba565b6106d3565b005b34801561020957600080fd5b50610224600480360381019061021f91906122fa565b6107ea565b005b34801561023257600080fd5b5061024d60048036038101906102489190612482565b61084a565b60405161025a91906124ed565b60405180910390f35b61026b610951565b005b34801561027957600080fd5b50610294600480360381019061028f91906122fa565b6109af565b005b3480156102a257600080fd5b506102bd60048036038101906102b89190612205565b6109cf565b6040516102ca9190612273565b60405180910390f35b3480156102df57600080fd5b506102fa60048036038101906102f59190612508565b610a80565b60405161030791906124ed565b60405180910390f35b34801561031c57600080fd5b50610325610b37565b005b34801561033357600080fd5b5061033c610b4b565b6040516103499190612273565b60405180910390f35b34801561035e57600080fd5b50610367610b75565b60405161037491906121ad565b60405180910390f35b34801561038957600080fd5b506103a4600480360381019061039f9190612561565b610c07565b005b3480156103b257600080fd5b506103cd60048036038101906103c89190612642565b610c1d565b005b3480156103db57600080fd5b506103f660048036038101906103f19190612205565b610c7f565b60405161040391906121ad565b60405180910390f35b34801561041857600080fd5b50610433600480360381019061042e91906126c5565b610d91565b6040516104409190612102565b60405180910390f35b34801561045557600080fd5b50610470600480360381019061046b9190612205565b610e25565b60405161047f93929190612705565b60405180910390f35b34801561049457600080fd5b506104af60048036038101906104aa9190612508565b610ee7565b005b3480156104bd57600080fd5b506104d860048036038101906104d39190612508565b610f6a565b6040516104e591906128ae565b60405180910390f35b3480156104fa57600080fd5b50610503611136565b60405161051091906128ae565b60405180910390f35b60007f80ac58cd000000000000000000000000000000000000000000000000000000007bffffffffffffffffffffffffffffffffffffffffffffffffffffffff1916827bffffffffffffffffffffffffffffffffffffffffffffffffffffffff191614806105e457507f5b5e139f000000000000000000000000000000000000000000000000000000007bffffffffffffffffffffffffffffffffffffffffffffffffffffffff1916827bffffffffffffffffffffffffffffffffffffffffffffffffffffffff1916145b806105f457506105f38261123b565b5b9050919050565b60606000805461060a906128ff565b80601f0160208091040260200160405190810160405280929190818152602001828054610636906128ff565b80156106835780601f1061065857610100808354040283529160200191610683565b820191906000526020600020905b81548152906001019060200180831161066657829003601f168201915b5050505050905090565b6000610698826112a5565b6004600083815260200190815260200160002060009054906101000a900473ffffffffffffffffffffffffffffffffffffffff169050919050565b60006106de826109cf565b90508073ffffffffffffffffffffffffffffffffffffffff168373ffffffffffffffffffffffffffffffffffffffff160361074e576040517f08c379a0000000000000000000000000000000000000000000000000000000008152600401610745906129a2565b60405180910390fd5b8073ffffffffffffffffffffffffffffffffffffffff1661076d6112f0565b73ffffffffffffffffffffffffffffffffffffffff16148061079c575061079b816107966112f0565b610d91565b5b6107db576040517f08c379a00000000000000000000000000000000000000000000000000000000081526004016107d290612a34565b60405180910390fd5b6107e583836112f8565b505050565b6107fb6107f56112f0565b826113b1565b61083a576040517f08c379a000000000000000000000000000000000000000000000000000000000815260040161083190612ac6565b60405180910390fd5b610845838383611446565b505050565b60006108546116ac565b60006040518060600160405280858152602001610871600861172a565b8152602001848152509050600981908060018154018082558091505060019003906000526020600020906003020160009091909190915060008201518160000190816108bd9190612c92565b506020820151816001015560408201518160020155505060006108e0600861172a565b90506108ec3382611738565b3373ffffffffffffffffffffffffffffffffffffffff167fb3c7a41c7278b90fcea1402ee2a4c68f519389c49eab530e66192691d6284d6e8286604051610934929190612d64565b60405180910390a26109466008611756565b809250505092915050565b6109596116ac565b6000610963610b4b565b90508073ffffffffffffffffffffffffffffffffffffffff166108fc479081150290604051600060405180830381858888f193505050501580156109ab573d6000803e3d6000fd5b5050565b6109ca83838360405180602001604052806000815250610c1d565b505050565b6000806002600084815260200190815260200160002060009054906101000a900473ffffffffffffffffffffffffffffffffffffffff169050600073ffffffffffffffffffffffffffffffffffffffff168173ffffffffffffffffffffffffffffffffffffffff1603610a77576040517f08c379a0000000000000000000000000000000000000000000000000000000008152600401610a6e90612dd9565b60405180910390fd5b80915050919050565b60008073ffffffffffffffffffffffffffffffffffffffff168273ffffffffffffffffffffffffffffffffffffffff1603610af0576040517f08c379a0000000000000000000000000000000000000000000000000000000008152600401610ae790612e6b565b60405180910390fd5b600360008373ffffffffffffffffffffffffffffffffffffffff1673ffffffffffffffffffffffffffffffffffffffff168152602001908152602001600020549050919050565b610b3f6116ac565b610b49600061176c565b565b6000600760009054906101000a900473ffffffffffffffffffffffffffffffffffffffff16905090565b606060018054610b84906128ff565b80601f0160208091040260200160405190810160405280929190818152602001828054610bb0906128ff565b8015610bfd5780601f10610bd257610100808354040283529160200191610bfd565b820191906000526020600020905b815481529060010190602001808311610be057829003601f168201915b5050505050905090565b610c19610c126112f0565b8383611832565b5050565b610c2e610c286112f0565b836113b1565b610c6d576040517f08c379a0000000000000000000000000000000000000000000000000000000008152600401610c6490612ac6565b60405180910390fd5b610c798484848461199e565b50505050565b6060610c8a826112a5565b6000600660008481526020019081526020016000208054610caa906128ff565b80601f0160208091040260200160405190810160405280929190818152602001828054610cd6906128ff565b8015610d235780601f10610cf857610100808354040283529160200191610d23565b820191906000526020600020905b815481529060010190602001808311610d0657829003601f168201915b505050505090506000610d346119fa565b90506000815103610d49578192505050610d8c565b600082511115610d7e578082604051602001610d66929190612ec7565b60405160208183030381529060405292505050610d8c565b610d8784611a11565b925050505b919050565b6000600560008473ffffffffffffffffffffffffffffffffffffffff1673ffffffffffffffffffffffffffffffffffffffff16815260200190815260200160002060008373ffffffffffffffffffffffffffffffffffffffff1673ffffffffffffffffffffffffffffffffffffffff16815260200190815260200160002060009054906101000a900460ff16905092915050565b60098181548110610e3557600080fd5b9060005260206000209060030201600091509050806000018054610e58906128ff565b80601f0160208091040260200160405190810160405280929190818152602001828054610e84906128ff565b8015610ed15780601f10610ea657610100808354040283529160200191610ed1565b820191906000526020600020905b815481529060010190602001808311610eb457829003601f168201915b5050505050908060010154908060020154905083565b610eef6116ac565b600073ffffffffffffffffffffffffffffffffffffffff168173ffffffffffffffffffffffffffffffffffffffff1603610f5e576040517f08c379a0000000000000000000000000000000000000000000000000000000008152600401610f5590612f5d565b60405180910390fd5b610f678161176c565b50565b60606000610f7783610a80565b67ffffffffffffffff811115610f9057610f8f612357565b5b604051908082528060200260200182016040528015610fc957816020015b610fb661202d565b815260200190600190039081610fae5790505b5090506000805b60098054905081101561112b578473ffffffffffffffffffffffffffffffffffffffff16610ffd826109cf565b73ffffffffffffffffffffffffffffffffffffffff1603611118576009818154811061102c5761102b612f7d565b5b9060005260206000209060030201604051806060016040529081600082018054611055906128ff565b80601f0160208091040260200160405190810160405280929190818152602001828054611081906128ff565b80156110ce5780601f106110a3576101008083540402835291602001916110ce565b820191906000526020600020905b8154815290600101906020018083116110b157829003601f168201915b50505050508152602001600182015481526020016002820154815250508383815181106110fe576110fd612f7d565b5b6020026020010181905250818061111490612fdb565b9250505b808061112390612fdb565b915050610fd0565b508192505050919050565b60606009805480602002602001604051908101604052809291908181526020016000905b82821015611232578382906000526020600020906003020160405180606001604052908160008201805461118d906128ff565b80601f01602080910402602001604051908101604052809291908181526020018280546111b9906128ff565b80156112065780601f106111db57610100808354040283529160200191611206565b820191906000526020600020905b8154815290600101906020018083116111e957829003601f168201915b50505050508152602001600182015481526020016002820154815250508152602001906001019061115a565b50505050905090565b60007f01ffc9a7000000000000000000000000000000000000000000000000000000007bffffffffffffffffffffffffffffffffffffffffffffffffffffffff1916827bffffffffffffffffffffffffffffffffffffffffffffffffffffffff1916149050919050565b6112ae81611a79565b6112ed576040517f08c379a00000000000000000000000000000000000000000000000000000000081526004016112e490612dd9565b60405180910390fd5b50565b600033905090565b816004600083815260200190815260200160002060006101000a81548173ffffffffffffffffffffffffffffffffffffffff021916908373ffffffffffffffffffffffffffffffffffffffff160217905550808273ffffffffffffffffffffffffffffffffffffffff1661136b836109cf565b73ffffffffffffffffffffffffffffffffffffffff167f8c5be1e5ebec7d5bd14f71427d1e84f3dd0314c0f7b2291e5b200ac8c7c3b92560405160405180910390a45050565b6000806113bd836109cf565b90508073ffffffffffffffffffffffffffffffffffffffff168473ffffffffffffffffffffffffffffffffffffffff1614806113ff57506113fe8185610d91565b5b8061143d57508373ffffffffffffffffffffffffffffffffffffffff166114258461068d565b73ffffffffffffffffffffffffffffffffffffffff16145b91505092915050565b8273ffffffffffffffffffffffffffffffffffffffff16611466826109cf565b73ffffffffffffffffffffffffffffffffffffffff16146114bc576040517f08c379a00000000000000000000000000000000000000000000000000000000081526004016114b390613095565b60405180910390fd5b600073ffffffffffffffffffffffffffffffffffffffff168273ffffffffffffffffffffffffffffffffffffffff160361152b576040517f08c379a000000000000000000000000000000000000000000000000000000000815260040161152290613127565b60405180910390fd5b611536838383611ae5565b6115416000826112f8565b6001600360008573ffffffffffffffffffffffffffffffffffffffff1673ffffffffffffffffffffffffffffffffffffffff16815260200190815260200160002060008282546115919190613147565b925050819055506001600360008473ffffffffffffffffffffffffffffffffffffffff1673ffffffffffffffffffffffffffffffffffffffff16815260200190815260200160002060008282546115e8919061317b565b92505081905550816002600083815260200190815260200160002060006101000a81548173ffffffffffffffffffffffffffffffffffffffff021916908373ffffffffffffffffffffffffffffffffffffffff160217905550808273ffffffffffffffffffffffffffffffffffffffff168473ffffffffffffffffffffffffffffffffffffffff167fddf252ad1be2c89b69c2b068fc378daa952ba7f163c4a11628f55a4df523b3ef60405160405180910390a46116a7838383611aea565b505050565b6116b46112f0565b73ffffffffffffffffffffffffffffffffffffffff166116d2610b4b565b73ffffffffffffffffffffffffffffffffffffffff1614611728576040517f08c379a000000000000000000000000000000000000000000000000000000000815260040161171f906131fb565b60405180910390fd5b565b600081600001549050919050565b611752828260405180602001604052806000815250611aef565b5050565b6001816000016000828254019250508190555050565b6000600760009054906101000a900473ffffffffffffffffffffffffffffffffffffffff16905081600760006101000a81548173ffffffffffffffffffffffffffffffffffffffff021916908373ffffffffffffffffffffffffffffffffffffffff1602179055508173ffffffffffffffffffffffffffffffffffffffff168173ffffffffffffffffffffffffffffffffffffffff167f8be0079c531659141344cd1fd0a4f28419497f9722a3daafe3b4186f6b6457e060405160405180910390a35050565b8173ffffffffffffffffffffffffffffffffffffffff168373ffffffffffffffffffffffffffffffffffffffff16036118a0576040517f08c379a000000000000000000000000000000000000000000000000000000000815260040161189790613267565b60405180910390fd5b80600560008573ffffffffffffffffffffffffffffffffffffffff1673ffffffffffffffffffffffffffffffffffffffff16815260200190815260200160002060008473ffffffffffffffffffffffffffffffffffffffff1673ffffffffffffffffffffffffffffffffffffffff16815260200190815260200160002060006101000a81548160ff0219169083151502179055508173ffffffffffffffffffffffffffffffffffffffff168373ffffffffffffffffffffffffffffffffffffffff167f17307eab39ab6107e8899845ad3d59bd9653f200f220920489ca2b5937696c31836040516119919190612102565b60405180910390a3505050565b6119a9848484611446565b6119b584848484611b4a565b6119f4576040517f08c379a00000000000000000000000000000000000000000000000000000000081526004016119eb906132f9565b60405180910390fd5b50505050565b606060405180602001604052806000815250905090565b6060611a1c826112a5565b6000611a266119fa565b90506000815111611a465760405180602001604052806000815250611a71565b80611a5084611cd1565b604051602001611a61929190612ec7565b6040516020818303038152906040525b915050919050565b60008073ffffffffffffffffffffffffffffffffffffffff166002600084815260200190815260200160002060009054906101000a900473ffffffffffffffffffffffffffffffffffffffff1673ffffffffffffffffffffffffffffffffffffffff1614159050919050565b505050565b505050565b611af98383611e31565b611b066000848484611b4a565b611b45576040517f08c379a0000000000000000000000000000000000000000000000000000000008152600401611b3c906132f9565b60405180910390fd5b505050565b6000611b6b8473ffffffffffffffffffffffffffffffffffffffff1661200a565b15611cc4578373ffffffffffffffffffffffffffffffffffffffff1663150b7a02611b946112f0565b8786866040518563ffffffff1660e01b8152600401611bb6949392919061336e565b6020604051808303816000875af1925050508015611bf257506040513d601f19601f82011682018060405250810190611bef91906133cf565b60015b611c74573d8060008114611c22576040519150601f19603f3d011682016040523d82523d6000602084013e611c27565b606091505b506000815103611c6c576040517f08c379a0000000000000000000000000000000000000000000000000000000008152600401611c63906132f9565b60405180910390fd5b805181602001fd5b63150b7a0260e01b7bffffffffffffffffffffffffffffffffffffffffffffffffffffffff1916817bffffffffffffffffffffffffffffffffffffffffffffffffffffffff191614915050611cc9565b600190505b949350505050565b606060008203611d18576040518060400160405280600181526020017f30000000000000000000000000000000000000000000000000000000000000008152509050611e2c565b600082905060005b60008214611d4a578080611d3390612fdb565b915050600a82611d43919061342b565b9150611d20565b60008167ffffffffffffffff811115611d6657611d65612357565b5b6040519080825280601f01601f191660200182016040528015611d985781602001600182028036833780820191505090505b5090505b60008514611e2557600182611db19190613147565b9150600a85611dc0919061345c565b6030611dcc919061317b565b60f81b818381518110611de257611de1612f7d565b5b60200101907effffffffffffffffffffffffffffffffffffffffffffffffffffffffffffff1916908160001a905350600a85611e1e919061342b565b9450611d9c565b8093505050505b919050565b600073ffffffffffffffffffffffffffffffffffffffff168273ffffffffffffffffffffffffffffffffffffffff1603611ea0576040517f08c379a0000000000000000000000000000000000000000000000000000000008152600401611e97906134d9565b60405180910390fd5b611ea981611a79565b15611ee9576040517f08c379a0000000000000000000000000000000000000000000000000000000008152600401611ee090613545565b60405180910390fd5b611ef560008383611ae5565b6001600360008473ffffffffffffffffffffffffffffffffffffffff1673ffffffffffffffffffffffffffffffffffffffff1681526020019081526020016000206000828254611f45919061317b565b92505081905550816002600083815260200190815260200160002060006101000a81548173ffffffffffffffffffffffffffffffffffffffff021916908373ffffffffffffffffffffffffffffffffffffffff160217905550808273ffffffffffffffffffffffffffffffffffffffff16600073ffffffffffffffffffffffffffffffffffffffff167fddf252ad1be2c89b69c2b068fc378daa952ba7f163c4a11628f55a4df523b3ef60405160405180910390a461200660008383611aea565b5050565b6000808273ffffffffffffffffffffffffffffffffffffffff163b119050919050565b60405180606001604052806060815260200160008152602001600081525090565b6000604051905090565b600080fd5b600080fd5b60007fffffffff0000000000000000000000000000000000000000000000000000000082169050919050565b61209781612062565b81146120a257600080fd5b50565b6000813590506120b48161208e565b92915050565b6000602082840312156120d0576120cf612058565b5b60006120de848285016120a5565b91505092915050565b60008115159050919050565b6120fc816120e7565b82525050565b600060208201905061211760008301846120f3565b92915050565b600081519050919050565b600082825260208201905092915050565b60005b8381101561215757808201518184015260208101905061213c565b60008484015250505050565b6000601f19601f8301169050919050565b600061217f8261211d565b6121898185612128565b9350612199818560208601612139565b6121a281612163565b840191505092915050565b600060208201905081810360008301526121c78184612174565b905092915050565b6000819050919050565b6121e2816121cf565b81146121ed57600080fd5b50565b6000813590506121ff816121d9565b92915050565b60006020828403121561221b5761221a612058565b5b6000612229848285016121f0565b91505092915050565b600073ffffffffffffffffffffffffffffffffffffffff82169050919050565b600061225d82612232565b9050919050565b61226d81612252565b82525050565b60006020820190506122886000830184612264565b92915050565b61229781612252565b81146122a257600080fd5b50565b6000813590506122b48161228e565b92915050565b600080604083850312156122d1576122d0612058565b5b60006122df858286016122a5565b92505060206122f0858286016121f0565b9150509250929050565b60008060006060848603121561231357612312612058565b5b6000612321868287016122a5565b9350506020612332868287016122a5565b9250506040612343868287016121f0565b9150509250925092565b600080fd5b600080fd5b7f4e487b7100000000000000000000000000000000000000000000000000000000600052604160045260246000fd5b61238f82612163565b810181811067ffffffffffffffff821117156123ae576123ad612357565b5b80604052505050565b60006123c161204e565b90506123cd8282612386565b919050565b600067ffffffffffffffff8211156123ed576123ec612357565b5b6123f682612163565b9050602081019050919050565b82818337600083830152505050565b6000612425612420846123d2565b6123b7565b90508281526020810184848401111561244157612440612352565b5b61244c848285612403565b509392505050565b600082601f8301126124695761246861234d565b5b8135612479848260208601612412565b91505092915050565b6000806040838503121561249957612498612058565b5b600083013567ffffffffffffffff8111156124b7576124b661205d565b5b6124c385828601612454565b92505060206124d4858286016121f0565b9150509250929050565b6124e7816121cf565b82525050565b600060208201905061250260008301846124de565b92915050565b60006020828403121561251e5761251d612058565b5b600061252c848285016122a5565b91505092915050565b61253e816120e7565b811461254957600080fd5b50565b60008135905061255b81612535565b92915050565b6000806040838503121561257857612577612058565b5b6000612586858286016122a5565b92505060206125978582860161254c565b9150509250929050565b600067ffffffffffffffff8211156125bc576125bb612357565b5b6125c582612163565b9050602081019050919050565b60006125e56125e0846125a1565b6123b7565b90508281526020810184848401111561260157612600612352565b5b61260c848285612403565b509392505050565b600082601f8301126126295761262861234d565b5b81356126398482602086016125d2565b91505092915050565b6000806000806080858703121561265c5761265b612058565b5b600061266a878288016122a5565b945050602061267b878288016122a5565b935050604061268c878288016121f0565b925050606085013567ffffffffffffffff8111156126ad576126ac61205d565b5b6126b987828801612614565b91505092959194509250565b600080604083850312156126dc576126db612058565b5b60006126ea858286016122a5565b92505060206126fb858286016122a5565b9150509250929050565b6000606082019050818103600083015261271f8186612174565b905061272e60208301856124de565b61273b60408301846124de565b949350505050565b600081519050919050565b600082825260208201905092915050565b6000819050602082019050919050565b600082825260208201905092915050565b600061278b8261211d565b612795818561276f565b93506127a5818560208601612139565b6127ae81612163565b840191505092915050565b6127c2816121cf565b82525050565b600060608301600083015184820360008601526127e58282612780565b91505060208301516127fa60208601826127b9565b50604083015161280d60408601826127b9565b508091505092915050565b600061282483836127c8565b905092915050565b6000602082019050919050565b600061284482612743565b61284e818561274e565b9350836020820285016128608561275f565b8060005b8581101561289c578484038952815161287d8582612818565b94506128888361282c565b925060208a01995050600181019050612864565b50829750879550505050505092915050565b600060208201905081810360008301526128c88184612839565b905092915050565b7f4e487b7100000000000000000000000000000000000000000000000000000000600052602260045260246000fd5b6000600282049050600182168061291757607f821691505b60208210810361292a576129296128d0565b5b50919050565b7f4552433732313a20617070726f76616c20746f2063757272656e74206f776e6560008201527f7200000000000000000000000000000000000000000000000000000000000000602082015250565b600061298c602183612128565b915061299782612930565b604082019050919050565b600060208201905081810360008301526129bb8161297f565b9050919050565b7f4552433732313a20617070726f76652063616c6c6572206973206e6f7420746f60008201527f6b656e206f776e6572206e6f7220617070726f76656420666f7220616c6c0000602082015250565b6000612a1e603e83612128565b9150612a29826129c2565b604082019050919050565b60006020820190508181036000830152612a4d81612a11565b9050919050565b7f4552433732313a2063616c6c6572206973206e6f7420746f6b656e206f776e6560008201527f72206e6f7220617070726f766564000000000000000000000000000000000000602082015250565b6000612ab0602e83612128565b9150612abb82612a54565b604082019050919050565b60006020820190508181036000830152612adf81612aa3565b9050919050565b60008190508160005260206000209050919050565b60006020601f8301049050919050565b600082821b905092915050565b600060088302612b487fffffffffffffffffffffffffffffffffffffffffffffffffffffffffffffffff82612b0b565b612b528683612b0b565b95508019841693508086168417925050509392505050565b6000819050919050565b6000612b8f612b8a612b85846121cf565b612b6a565b6121cf565b9050919050565b6000819050919050565b612ba983612b74565b612bbd612bb582612b96565b848454612b18565b825550505050565b600090565b612bd2612bc5565b612bdd818484612ba0565b505050565b5b81811015612c0157612bf6600082612bca565b600181019050612be3565b5050565b601f821115612c4657612c1781612ae6565b612c2084612afb565b81016020851015612c2f578190505b612c43612c3b85612afb565b830182612be2565b50505b505050565b600082821c905092915050565b6000612c6960001984600802612c4b565b1980831691505092915050565b6000612c828383612c58565b9150826002028217905092915050565b612c9b8261211d565b67ffffffffffffffff811115612cb457612cb3612357565b5b612cbe82546128ff565b612cc9828285612c05565b600060209050601f831160018114612cfc5760008415612cea578287015190505b612cf48582612c76565b865550612d5c565b601f198416612d0a86612ae6565b60005b82811015612d3257848901518255600182019150602085019450602081019050612d0d565b86831015612d4f5784890151612d4b601f891682612c58565b8355505b6001600288020188555050505b505050505050565b6000604082019050612d7960008301856124de565b612d8660208301846124de565b9392505050565b7f4552433732313a20696e76616c696420746f6b656e2049440000000000000000600082015250565b6000612dc3601883612128565b9150612dce82612d8d565b602082019050919050565b60006020820190508181036000830152612df281612db6565b9050919050565b7f4552433732313a2061646472657373207a65726f206973206e6f74206120766160008201527f6c6964206f776e65720000000000000000000000000000000000000000000000602082015250565b6000612e55602983612128565b9150612e6082612df9565b604082019050919050565b60006020820190508181036000830152612e8481612e48565b9050919050565b600081905092915050565b6000612ea18261211d565b612eab8185612e8b565b9350612ebb818560208601612139565b80840191505092915050565b6000612ed38285612e96565b9150612edf8284612e96565b91508190509392505050565b7f4f776e61626c653a206e6577206f776e657220697320746865207a65726f206160008201527f6464726573730000000000000000000000000000000000000000000000000000602082015250565b6000612f47602683612128565b9150612f5282612eeb565b604082019050919050565b60006020820190508181036000830152612f7681612f3a565b9050919050565b7f4e487b7100000000000000000000000000000000000000000000000000000000600052603260045260246000fd5b7f4e487b7100000000000000000000000000000000000000000000000000000000600052601160045260246000fd5b6000612fe6826121cf565b91507fffffffffffffffffffffffffffffffffffffffffffffffffffffffffffffffff820361301857613017612fac565b5b600182019050919050565b7f4552433732313a207472616e736665722066726f6d20696e636f72726563742060008201527f6f776e6572000000000000000000000000000000000000000000000000000000602082015250565b600061307f602583612128565b915061308a82613023565b604082019050919050565b600060208201905081810360008301526130ae81613072565b9050919050565b7f4552433732313a207472616e7366657220746f20746865207a65726f2061646460008201527f7265737300000000000000000000000000000000000000000000000000000000602082015250565b6000613111602483612128565b915061311c826130b5565b604082019050919050565b6000602082019050818103600083015261314081613104565b9050919050565b6000613152826121cf565b915061315d836121cf565b925082820390508181111561317557613174612fac565b5b92915050565b6000613186826121cf565b9150613191836121cf565b92508282019050808211156131a9576131a8612fac565b5b92915050565b7f4f776e61626c653a2063616c6c6572206973206e6f7420746865206f776e6572600082015250565b60006131e5602083612128565b91506131f0826131af565b602082019050919050565b60006020820190508181036000830152613214816131d8565b9050919050565b7f4552433732313a20617070726f766520746f2063616c6c657200000000000000600082015250565b6000613251601983612128565b915061325c8261321b565b602082019050919050565b6000602082019050818103600083015261328081613244565b9050919050565b7f4552433732313a207472616e7366657220746f206e6f6e20455243373231526560008201527f63656976657220696d706c656d656e7465720000000000000000000000000000602082015250565b60006132e3603283612128565b91506132ee82613287565b604082019050919050565b60006020820190508181036000830152613312816132d6565b9050919050565b600081519050919050565b600082825260208201905092915050565b600061334082613319565b61334a8185613324565b935061335a818560208601612139565b61336381612163565b840191505092915050565b60006080820190506133836000830187612264565b6133906020830186612264565b61339d60408301856124de565b81810360608301526133af8184613335565b905095945050505050565b6000815190506133c98161208e565b92915050565b6000602082840312156133e5576133e4612058565b5b60006133f3848285016133ba565b91505092915050565b7f4e487b7100000000000000000000000000000000000000000000000000000000600052601260045260246000fd5b6000613436826121cf565b9150613441836121cf565b925082613451576134506133fc565b5b828204905092915050565b6000613467826121cf565b9150613472836121cf565b925082613482576134816133fc565b5b828206905092915050565b7f4552433732313a206d696e7420746f20746865207a65726f2061646472657373600082015250565b60006134c3602083612128565b91506134ce8261348d565b602082019050919050565b600060208201905081810360008301526134f2816134b6565b9050919050565b7f4552433732313a20746f6b656e20616c7265616479206d696e74656400000000600082015250565b600061352f601c83612128565b915061353a826134f9565b602082019050919050565b6000602082019050818103600083015261355e81613522565b905091905056fea26469706673582212205c54a3a90cde997df6d7cfaa04407b53b464db0462c5e534058ac83a2e89f49164736f6c63430008100033",
  "immutableReferences": {},
  "source": "// SPDX-License-Identifier: MIT\r\npragma solidity ^0.8.0;\r\n\r\nimport \"./@openzeppelin/contracts/token/ERC721/ERC721.sol\";\r\nimport \"./@openzeppelin/contracts/utils/Counters.sol\";\r\nimport \"./@openzeppelin/contracts/access/Ownable.sol\";\r\nimport \"./@openzeppelin/contracts/token/ERC721/extensions/ERC721URIStorage.sol\";\r\n\r\ncontract SudalFarm is ERC721URIStorage, Ownable {\r\n\r\n    event NewSudal(address indexed owner, uint id, uint dna);\r\n\r\n    using Counters for Counters.Counter;\r\n    Counters.Counter private _tokenIds;\r\n\r\n    struct Sudal {\r\n        string name;\r\n        uint id;\r\n        uint dna;\r\n    }\r\n\r\n    Sudal[] public sudals;\r\n\r\n\r\n    constructor() ERC721(\"SudalNFT\", \"NFT\") {}\r\n\r\n    function withdraw() external payable onlyOwner() {\r\n        address payable _owner = payable(owner());\r\n        _owner.transfer(address(this).balance);\r\n    }\r\n\r\n    function _createSudal(string memory _name, uint _dna)\r\n        public onlyOwner\r\n        returns (uint256)\r\n    {\r\n        Sudal memory newSudal = Sudal(_name, _tokenIds.current(), _dna);\r\n        sudals.push(newSudal);\r\n\r\n        uint256 newItemId = _tokenIds.current();\r\n        _safeMint(msg.sender, newItemId);\r\n//        _setTokenURI(newItemId, tokenURI);\r\n\r\n        emit NewSudal(msg.sender, newItemId, _dna);\r\n\r\n        _tokenIds.increment();\r\n\r\n        return newItemId;\r\n    }\r\n\r\n    function getSudals() public view returns(Sudal[] memory) {\r\n        return sudals;\r\n    }\r\n\r\n    function _getSudalsByOwner(address _owner) public view returns(Sudal[] memory) {\r\n        Sudal[] memory result = new Sudal[](balanceOf(_owner));\r\n        uint256 count = 0;\r\n        for (uint i = 0; i < sudals.length; i++){\r\n            if (ownerOf(i) == _owner) {\r\n                result[count] = sudals[i];\r\n                count++;\r\n            }\r\n        }\r\n        return result;\r\n    }\r\n}\r\n",
  "sourcePath": "C:\\SSAFY\\git\\S07P22A606\\Solidity\\contracts\\SudalFarm.sol",
  "compiler": {
    "name": "solc",
    "version": "0.8.16+commit.07a7930e.Emscripten.clang"
  },
  "schemaVersion": "3.4.9",
  "updatedAt": "2022-09-13T09:12:16.125Z",
  "networkType": "ethereum",
  "devdoc": {
    "kind": "dev",
    "methods": {
      "approve(address,uint256)": {
        "details": "See {IERC721-approve}."
      },
      "balanceOf(address)": {
        "details": "See {IERC721-balanceOf}."
      },
      "getApproved(uint256)": {
        "details": "See {IERC721-getApproved}."
      },
      "isApprovedForAll(address,address)": {
        "details": "See {IERC721-isApprovedForAll}."
      },
      "name()": {
        "details": "See {IERC721Metadata-name}."
      },
      "owner()": {
        "details": "Returns the address of the current owner."
      },
      "ownerOf(uint256)": {
        "details": "See {IERC721-ownerOf}."
      },
      "renounceOwnership()": {
        "details": "Leaves the contract without owner. It will not be possible to call `onlyOwner` functions anymore. Can only be called by the current owner. NOTE: Renouncing ownership will leave the contract without an owner, thereby removing any functionality that is only available to the owner."
      },
      "safeTransferFrom(address,address,uint256)": {
        "details": "See {IERC721-safeTransferFrom}."
      },
      "safeTransferFrom(address,address,uint256,bytes)": {
        "details": "See {IERC721-safeTransferFrom}."
      },
      "setApprovalForAll(address,bool)": {
        "details": "See {IERC721-setApprovalForAll}."
      },
      "supportsInterface(bytes4)": {
        "details": "See {IERC165-supportsInterface}."
      },
      "symbol()": {
        "details": "See {IERC721Metadata-symbol}."
      },
      "tokenURI(uint256)": {
        "details": "See {IERC721Metadata-tokenURI}."
      },
      "transferFrom(address,address,uint256)": {
        "details": "See {IERC721-transferFrom}."
      },
      "transferOwnership(address)": {
        "details": "Transfers ownership of the contract to a new account (`newOwner`). Can only be called by the current owner."
      }
    },
    "version": 1
  },
  "userdoc": {
    "kind": "user",
    "methods": {},
    "version": 1
  }
}